:100000000C946A000C9492000C9492000C94920050
:100010000C9492000C9492000C9492000C94920018
:100020000C9492000C9492000C9492000C94920008
:100030000C9492000C9492000C9492000C949200F8
:100040000C9449020C9492000C9492000C9492002F
:100050000C9492000C9492000C9492000C949200D8
:100060000C9492000C9492004E045D046C047B048A
:100070008A049904A804B7040000000024002700A3
:100080002A0000000000250028002B0000000000CE
:1000900023002600290004040404040404040202CA
:1000A00002020202030303030303010204081020F7
:1000B0004080010204081020010204081020000002
:1000C0000008000201000003040700000000000017
:1000D0000000E90411241FBECFEFD8E0DEBFCDBF82
:1000E00011E0A0E0B1E0ECEBFAE002C005900D9267
:1000F000A831B107D9F721E0A8E1B1E001C01D9214
:10010000A239B207E1F710E0CAE6D0E004C02197B7
:10011000FE010E945605C936D107C9F70E94930215
:100120000C945C050C94000096E0899FD00111248A
:10013000AD5DBE4F90967C936E935F9791E09196E4
:100140009C93919790918F01E0919001F091910192
:10015000992339F0309751F0811108C080913F0107
:1001600004C0309719F05C968C91099408958330FF
:1001700081F028F4813099F08230A1F00895873021
:10018000A9F08830B9F08430D1F4809180008F7D5F
:1001900003C0809180008F7780938000089584B59C
:1001A0008F7702C084B58F7D84BD08958091B000A3
:1001B0008F7703C08091B0008F7D8093B000089549
:1001C000CF93DF93282F30E0F901E254FF4F849161
:1001D000F901E655FF4FD491F901EA56FF4FC4915A
:1001E000CC2391F081110E94B700EC2FF0E0EE0FCC
:1001F000FF1FE457FF4FA591B491EC91ED2381E0EF
:1002000090E021F480E002C080E090E0DF91CF91A7
:100210000895862F0C94E0001F93CF93DF93282F2F
:1002200030E0F901E254FF4F8491F901E655FF4FA8
:10023000D491F901EA56FF4FC491CC23C9F0162F8F
:1002400081110E94B700EC2FF0E0EE0FFF1FEE5778
:10025000FF4FA591B4918FB7F894111105C09C91EF
:10026000ED2FE095E92302C0EC91ED2BEC938FBFCD
:10027000DF91CF911F910895862F642F0C940C016C
:10028000CF93DF9390E0FC01E655FF4F2491FC01F2
:10029000EA56FF4F8491882361F190E0880F991FFF
:1002A000FC01E858FF4FC591D491FC01EE57FF4F78
:1002B000A591B491611109C09FB7F89488812095E8
:1002C00082238883EC912E230BC0623061F49FB7A8
:1002D000F8943881822F809583238883EC912E2B8C
:1002E0002C939FBF06C08FB7F894E8812E2B2883EC
:1002F0008FBFDF91CF910895862F642F0C9440011A
:100300003FB7F89480911D0190911E01A0911F01AB
:10031000B091200126B5A89B05C02F3F19F001968A
:10032000A11DB11D3FBFBA2FA92F982F8827820F7B
:10033000911DA11DB11DBC01CD0142E0660F771FCB
:10034000881F991F4A95D1F708958F929F92AF9277
:10035000BF92CF92DF92EF92FF926B017C010E94DD
:1003600080014B015C01C114D104E104F104F1F0FE
:100370000E948001DC01CB0188199909AA09BB09F7
:10038000883E9340A105B10570F321E0C21AD1085F
:10039000E108F10888EE880E83E0981EA11CB11CCC
:1003A000C114D104E104F10419F7DDCFFF90EF90FF
:1003B000DF90CF90BF90AF909F908F9008952FB710
:1003C000F8946091190170911A0180911B0190912C
:1003D0001C012FBF08950F931F93CF93DF93C82F56
:1003E000D62F86E0C89FF0011124ED5DFE4F11A2CB
:1003F000878D90A181309105F1F01CF4892B49F093
:1004000043C082309105A9F10397F1F560E070E0F7
:1004100034C06623C9F161E070E08C2F0E94940023
:100420000E94DF0160937B0170937C0180937D01CA
:1004300090937E0129C00E94DF0100917B01109101
:100440007C0120917D0130917E01AB01BC01401BFC
:10045000510B620B730B80918D0190918E01A0E086
:10046000B0E084179507A607B70718F462E070E0BC
:1004700004C0D11109C063E070E08C2FDF91CF91EF
:100480001F910F910C949400DF91CF911F910F91C8
:1004900008951F920F920FB60F9211242F933F933E
:1004A0008F939F93AF93BF938091190190911A01FD
:1004B000A0911B01B0911C013091180123E0230F82
:1004C0002D3720F40196A11DB11D05C026E8230F8C
:1004D0000296A11DB11D20931801809319019093DC
:1004E0001A01A0931B01B0931C0180911D019091F2
:1004F0001E01A0911F01B09120010196A11DB11D07
:1005000080931D0190931E01A0931F01B0932001C1
:10051000BF91AF919F918F913F912F910F900FBEFF
:100520000F901F901895789484B5826084BD84B52F
:10053000816084BD85B5826085BD85B5816085BDDE
:1005400080916E00816080936E0010928100809196
:10055000810082608093810080918100816080931E
:100560008100809180008160809380008091B10043
:1005700084608093B1008091B00081608093B0006E
:1005800080917A00846080937A0080917A00826002
:1005900080937A0080917A00816080937A008091C4
:1005A0007A00806880937A001092C10061E083E055
:1005B0000E94400160E083E00E940C0161E08EE057
:1005C0000E94400161E08FE00E94400161E080E113
:1005D0000E94400160E08EE00E940C0160E08FE02C
:1005E0000E940C0160E080E10E940C0180912101D9
:1005F00090912201089778F080E090E00E944005F9
:10060000882329F060E080E090E00E944805109285
:1006100022011092210164E170E080E090E00E94EC
:10062000A5010E94DF0100917F01109180012091BE
:10063000810130918201AB01BC01401B510B620B67
:10064000730B80918B0190918C01A0E0B0E0841736
:100650009507A607B70708F0EFC0C0E080918901B1
:10066000C81760F4E0918501F0918601EC0FF11D4F
:1006700062E080810E944001CF5FF0CF712C812C1D
:10068000912C5401839480918A01781608F05FC000
:10069000072D10E0E0918701F0918801E00FF11F34
:1006A00061E080810E944001E0918701F091880122
:1006B000E00FF11F60E080810E940C01D501C401B0
:1006C000072C04C0880F991FAA1FBB1F0A94D2F7DA
:1006D0006C017C01E094F094612C80918901681692
:1006E000F8F4C62DD0E0E0918501F0918601EC0F81
:1006F000FD1F80810E94E0002496CC0FDD1FCD5DA0
:10070000DE4F892B29F4888199818C299D2904C089
:10071000888199818E219F21998388836394DDCF7D
:10072000E0918701F0918801E00FF11F61E0808185
:100730000E940C018091870190918801FC01E00FDB
:10074000F11F60E080810E94400173949CCFEFE331
:10075000F1E08FEF9FEF23813481232B21F410826E
:10076000928381831582369621E0EB37F20799F761
:1007700010E096E0F92E80918901181708F052C018
:1007800000E0C12FD0E0CC0FDD1FC55DDE4F209112
:100790008A01021708F044C068817981002E02C0E6
:1007A000769567950A94E2F761707727129F90011A
:1007B0001124200F311DE0918301F0918401E20F9B
:1007C000F31F4081E3E2F1E080E0A58DB68DA21732
:1007D000B30711F461701AC08F5F36968A30A9F79B
:1007E000672BE1F0EFE3F1E080E090E05081511100
:1007F00010C0F89EF001F99EF00D1124ED5DFE4F42
:10080000448F368F258F10A2178E61E00E94EB0176
:1008100005C0019636968A30910541F70F5FB7CF34
:100820001F5FA9CF0E94DF0160937F017093800159
:10083000809381019093820120E030E080E0F90113
:10084000ED5DFE4F948D890F2A5F3F4F2C333105AC
:10085000B1F78F3309F47CC03CF48D33E9F10CF02F
:1008600059C08C33D9F00DC0813709F444C01CF451
:10087000803719F106C0823709F45BC0833709F469
:1008800076C0C0912101D0912201C830D10508F075
:100890007CC0FE01EC5CFF4F0C94560560E08EE0DE
:1008A0000E940C0160E08FE00E940C0160E080E19A
:1008B0000E940C01C0E0D0E068C061E08EE00E94C0
:1008C0000C0160E08FE00E940C0160E080E10E947A
:1008D0000C01C1E0D0E059C060E08EE00E940C0144
:1008E00061E08FE00E940C0160E080E10E940C0159
:1008F000C2E0D0E04AC061E08EE00E940C0161E0FD
:100900008FE00E940C0160E080E10E940C01C3E0D6
:10091000D0E03BC060E08EE00E940C0160E08FE020
:100920000E940C0161E080E10E940C01C4E0D0E073
:100930002CC061E08EE00E940C0160E08FE00E941C
:100940000C0161E080E10E940C01C5E0D0E01DC017
:1009500060E08EE00E940C0161E08FE00E940C01DB
:1009600061E080E10E940C01C6E0D0E00EC061E0D1
:100970008EE00E940C0161E08FE00E940C0161E0BA
:1009800080E10E940C01C7E0D0E080E090E00E948E
:100990004005C81729F06C2F80E090E00E944805C0
:1009A000D0932201C093210164E670E080E090E0E2
:1009B0000E94A50161E083E00E940C0160E083E0F9
:1009C0000E944001C0E0D0E02097F1F30E940000B7
:1009D000FBCF10922501109229011092280110924C
:1009E0002A0182E191E0909324018093230180E029
:1009F00090E0FC01ED5DFE4F148E10A2178E11A247
:100A000006968C339105A9F784E091E090938601D6
:100A10008093850180E091E0909388018093870125
:100A200082E08093890184E080938A0186E091E0EE
:100A300090938401809383018AE090E090938C01ED
:100A400080938B0184EF91E090938E0180938D01D0
:100A5000109291011092900110927F0110928001EA
:100A6000109281011092820110928F0180E090E03B
:100A70000E94400590E09093220180932101089507
:100A8000F999FECF92BD81BDF89A992780B5089556
:100A9000262FF999FECF1FBA92BD81BD20BD0FB69A
:100AA000F894FA9AF99A0FBE01960895EE0FFF1F77
:0C0AB0000590F491E02D0994F894FFCF1C
:100ABC000A0908070001343536373C3D3E3F00003B
:080ACC0000007C013C0109015E
:107800000C94343C0C94513C0C94513C0C94513CE1
:107810000C94513C0C94513C0C94513C0C94513CB4
:107820000C94513C0C94513C0C94513C0C94513CA4
:107830000C94513C0C94513C0C94513C0C94513C94
:107840000C94513C0C94513C0C94513C0C94513C84
:107850000C94513C0C94513C0C94513C0C94513C74
:107860000C94513C0C94513C11241FBECFEFD8E036
:10787000DEBFCDBF11E0A0E0B1E0ECE9FFE702C060
:1078800005900D92A230B107D9F712E0A2E0B1E065
:1078900001C01D92AD30B107E1F70E942D3D0C945F
:1078A000CC3F0C94003C982F959595959595959582
:1078B000905D8F708A307CF0282F295A8091C0000B
:1078C00085FFFCCF9093C6008091C00085FFFCCF60
:1078D0002093C6000895282F205DF0CF982F809127
:1078E000C00085FFFCCF9093C6000895EF92FF92F1
:1078F0000F931F93EE24FF2487018091C00087FD22
:1079000017C00894E11CF11C011D111D81E4E8164B
:1079100082E4F8068FE0080780E0180770F3E09132
:107920000401F091050109958091C00087FFE9CF1E
:107930008091C6001F910F91FF90EF9008950E94D3
:10794000763C982F8091C00085FFFCCF9093C600B5
:1079500091362CF490330CF09053892F089597555D
:10796000892F08951F930E949F3C182F0E949F3CCF
:107970001295107F810F1F9108951F93182F882350
:1079800021F00E94763C1150E1F71F9108951F935A
:10799000182F0E94763C803249F0809103018F5F5E
:1079A000809303018530C1F01F9108958091C0003C
:1079B00085FFFCCF84E18093C6008091C00085FFE5
:1079C000FCCF1093C6008091C00085FFFCCF80E102
:1079D0008093C6001F910895E0910401F091050184
:1079E00009951F9108950E94763C803241F0809164
:1079F00003018F5F80930301853081F008958091AA
:107A0000C00085FFFCCF84E18093C6008091C00058
:107A100085FFFCCF80E18093C6000895E0910401CA
:107A2000F09105010995089540E951E08823A1F0FE
:107A30002D9A28EE33E0FA013197F1F721503040CA
:107A4000D1F72D9828EE33E0FA013197F1F7215064
:107A50003040D1F7815061F708953F924F925F9285
:107A60006F927F928F929F92AF92BF92CF92DF924E
:107A7000EF92FF920F931F93CF93DF93000080E16B
:107A80008093C4001092C50088E18093C10086E015
:107A90008093C2005098589A259A81E00E94143D24
:107AA00024E1F22E9EE1E92E85E9D82E0FE0C02ECA
:107AB00010E1B12EAA24A394B1E49B2EA6E58A2E50
:107AC000F2E57F2EE0E26E2E79E4572E63E5462E36
:107AD00050E5352E0E94763C8033B1F18133B9F107
:107AE000803409F46FC0813409F476C0823409F41B
:107AF00085C0853409F488C0803531F1823521F1A3
:107B0000813511F1853509F485C0863509F48DC0BC
:107B1000843609F496C0843709F403C1853709F423
:107B200072C1863709F466C0809103018F5F80932C
:107B30000301853079F6E0910401F0910501099582
:107B40000E94763C803351F60E94F33CC3CF0E94E2
:107B5000763C803249F78091C00085FFFCCFF092DF
:107B6000C6008091C00085FFFCCF9092C600809136
:107B7000C00085FFFCCF8092C6008091C00085FFC9
:107B8000FCCF7092C6008091C00085FFFCCF609250
:107B9000C6008091C00085FFFCCF5092C600809146
:107BA000C00085FFFCCF4092C6008091C00085FFD9
:107BB000FCCF3092C6008091C00085FFFCCFB09210
:107BC000C60088CF0E94763C863808F4BDCF0E945C
:107BD000763C0E94F33C7ECF0E94763C803809F4CC
:107BE0009CC0813809F40BC1823809F43CC1883942
:107BF00009F48FC080E00E94C73C6CCF84E10E94F2
:107C0000BD3C0E94F33C66CF85E00E94BD3C0E94D3
:107C1000F33C60CF0E94763C809306010E94763C44
:107C2000809307010E94F33C55CF0E94763C80333D
:107C300009F41DC183E00E94BD3C80E00E94C73C66
:107C400049CF0E94763C809309020E94763C809343
:107C5000080280910C028E7F80930C020E94763C79
:107C6000853409F415C18091080290910902892B8D
:107C700089F000E010E00E94763CF801E85FFE4FDA
:107C800080830F5F1F4F80910802909109020817AF
:107C9000190788F30E94763C803209F045CF809125
:107CA0000C0280FF01C16091060170910701660F0F
:107CB000771F7093070160930601A0910802B091AD
:107CC00009021097C9F0E8E0F1E09B01AD014E0F09
:107CD0005F1FF999FECF32BD21BD819180BDFA9A17
:107CE000F99A2F5F3F4FE417F50799F76A0F7B1F4B
:107CF00070930701609306018091C00085FFFCCF5F
:107D0000F092C6008091C00085FFFCCFB092C60003
:107D1000E1CE83E00E94C73CDDCE82E00E94C73CFA
:107D2000D9CE0E94763C809309020E94763C8093D3
:107D300008028091060190910701880F991F909386
:107D40000701809306010E94763C853409F4A6C0A1
:107D500080910C028E7F80930C020E94763C8032D0
:107D600009F0B8CE8091C00085FFFCCFF092C6002C
:107D7000609108027091090261157105B9F140E046
:107D800050E080910C02A82FA170B82FB27011C0E2
:107D9000BB2309F45CC0E0910601F0910701319624
:107DA000F0930701E09306014F5F5F4F46175707B7
:107DB000E8F4AA2369F3F999FECF209106013091E6
:107DC000070132BD21BDF89A90B58091C00085FFB2
:107DD000FCCF9093C6002F5F3F4F30930701209355
:107DE00006014F5F5F4F4617570718F38091C00099
:107DF00085FDE5CE8091C00085FFF8CFE0CE81E023
:107E00000E94C73C67CE0E94763C803209F08CCE3F
:107E10008091C00085FFFCCFF092C6008091C00029
:107E200085FFFCCFE092C6008091C00085FFFCCFAB
:107E3000D092C6008091C00085FFFCCFC092C600E2
:107E40008091C00085FFFCCFB092C60043CEE09188
:107E50000601F091070194918091C00085FFFCCF4D
:107E60009093C6009CCF80E10E94C73C33CE0E9415
:107E7000763C0E94763C182F0E94763C112309F430
:107E800083C0113009F484C08FE00E94C73C22CE29
:107E900080910C02816080930C02E5CE80910C02EF
:107EA000816080930C0259CF809107018823880F4D
:107EB000880B8A2180930B02809106019091070123
:107EC000880F991F90930701809306018091080203
:107ED00080FF09C080910802909109020196909359
:107EE000090280930802F894F999FECF1127E091D6
:107EF0000601F0910701C8E0D1E08091080290915D
:107F00000902103091F40091570001700130D9F34B
:107F100003E000935700E89500915700017001308D
:107F2000D9F301E100935700E89509901990009169
:107F3000570001700130D9F301E000935700E89534
:107F40001395103498F011270091570001700130FB
:107F5000D9F305E000935700E895009157000170B0
:107F60000130D9F301E100935700E895329602976A
:107F700009F0C7CF103011F00296E5CF112480919F
:107F8000C00085FFB9CEBCCE8EE10E94C73CA2CD19
:0C7F900085E90E94C73C9ECDF894FFCF0D
:027F9C00800063
:040000030000780081
:00000001FF
